:020000008B2A49
:10000800FF00030E8301C2000A08C3008A017008BA
:10001800A2007108A1007208A0000408A3008C1DAA
:100028007D288C118316141D2D2883122608031988
:100038001E28A501A6012508273E84000008F00017
:1000480070089300250AF0007008A500141613081C
:10005800A400831614193228031433280310031C30
:100068003B288316941E3B28831271143D28831263
:100078007110711C44288316141C44280314452845
:100088000310031C592883121308F2007208223A3D
:10009800031957282508273E840072088000250A7E
:1000A800F0007008A5000130A600831614195F2817
:1000B800831271146128831271108316941A6628AA
:1000C8000314672803108312711C6E28031C6E2802
:1000D80071146F287110711C76288316141C7628E9
:1000E800031477280310031C7D2883121308A40027
:1000F800A50183122208F0002108F1002008F2006F
:100108002308840043088A00420E8300FF0E7F0EF6
:020118000900DC
:10011A0083120313FB01FA01F9018030F800F10C94
:10012A00F00C031CA1287408F90775080318750F49
:10013A00FA070318FB0A0310F01FA9287408FA0724
:10014A0075080318750FFB07FB0CFA0CF90CF80C71
:10015A00031C94287B08F3007A08F2007908F1005E
:06016A007808F000080017
:10017000710DF80DF90D7408F8027508031C750F60
:10018000F902F00DF10D0F30FC00710DF80DF90DB5
:100190007408701CD128F8027508031C750FF90249
:1001A000D628F80775080318750FF907F00DF10D3B
:1001B000FC0BC5287018E2287408F80775080318A6
:0801C000750FF90700000800AB
:1001C800831203137408003A031DF3287508003AD4
:1001D800031DF328FF30F0007F30F1004C29831213
:1001E8000313FD01F901F8017108700403190034C3
:1001F80071087506FA00FA1BFD09FB01F51F0929AC
:10020800F409F509F40A0319F50AF11F1029F00990
:10021800F109F00A0319F10A71087504FA00FA1BCA
:100228002529B8207B183829FD1F0034F009F10969
:10023800F00A0319F10AF809F909F80A0319F90A81
:100248000034F51F3429F11B30297108F9007008B2
:10025800F800F101F0011829F101F001F00A003469
:10026800F109F009FB0A1529F80A0319F90A7408B3
:100278007802031D182975087902031D1829F90148
:10028800F801F00A0319F10AF11F18290000FF34D8
:0202980008005C
:10029A00831603131208013E8312F000F1010318BA
:1002AA00F10A831661088312F400F5018D200630E5
:1002BA00F2007008F4007108F500720803196A293F
:1002CA00F50CF40CF513FF3E63290430F1007408B1
:1002DA00F000710803197529F00D7010FF3E6F299F
:1002EA0030307005F3007408F0007508F100F10C65
:1002FA00F00CF113F10CF00CF11370089B000F30A5
:08030A009D0573089D04080025
:0C031200831203139501171297120800C4
:10031E00831603130711831212150C30970408006D
:0C032E00831203139B011D129D12080096
:10033A00831603138710831212150C309D040800CC
:10034A00831603131208013E8312F000F101031809
:10035A00F10A831661088312F400F5018D20063034
:10036A00F2007008F4007108F50072080319C22936
:10037A00F50CF40CF513FF3EBB290430F1007408A8
:10038A00F00071080319CD29F00D7010FF3EC7293E
:10039A0030307005F3007408F0007508F100F10CB4
:1003AA00F00CF113F10CF00CF113700895000F30FA
:0803BA00970573089704080081
:1003C2000730831603139F008501860187013F30A2
:1003D200831285008601E030870083168715071691
:0203E200080011
:1003E40083160313590857028312F40083165A081C
:1003F400031C013E58028312F50083165D085F0258
:100404008312F00083165E08031C013E600283120F
:10041400F1008D20831659085B028312F4008316C1
:100424005A08031C013E5C028312F500E420831683
:100434005D088312F00783165E080318013E8312D9
:04044400F1070800B4
:10044800023083120313FC004B30FD00FD0B2A2AF7
:10045800FC0B2A2A83165808053C0318422A580818
:1004680057078312F0007008840000088316870578
:1004780083127008840000088705512A83165808DB
:1004880057078312F000700884000008831685055A
:10049800831270088400000885058530FD00FD0B77
:0404A800532A0800CB
:0E04AC008312031341088A00400882000800F2
:1004BA008B013E3083120313940083169101B030EE
:1004CA0093009401831294168316941714178312B7
:0E04DA008C118D1183168C150B178B170800D3
:1004E8008312031312149210C030831692008921CC
:1004F80012149210C0308316920097218F219D21EB
:0E0508008316E101A5218316E1014D210800B3
:100516003E3083160313B2003B30B3003730B400CD
:100526003D30B500B601B701B801B901BA01BB014A
:10053600BC01BD01BE01BF01C001C101C201C301B1
:10054600C401C501C601C7013E30C8002F30C9002D
:100556001F30CA003B30CB003730CC003D30CD00D9
:100566007F30CE00BF30CF00DF30D0008312CC0109
:10057600CB01CA01A5015D227422E1218312CD01BE
:1005860004304D020318CE2A4D084E3E840030300A
:100596008000CD0AC32ACD0104304D020318DA2AA1
:1005A6004D08523E840031308000CD0ACF2ACD015D
:1005B60004304D020318E62A4D08563E84003030BA
:1005C6008000CD0ADB2ACD0104304D020318F22A41
:1005D6004D085A3E840030308000CD0AE72ACD010E
:1005E60012304D020318FE2A4D085E3E840030305C
:1005F6008000CD0AF32ACD0112304D0203180A2BD2
:100606004D08A03E840030308000CD0AFF2ACD017F
:1006160019304D020318162B4D08273E8400303042
:100626008000CD0A0B2B4830A7002708533A031D3C
:100636003A2B2C08533A031D3A2BCD0104304D02B8
:100646000318392B4D085A3EF2004D08013EF000C2
:10065600F1010318F10A7008273E84000008F00033
:100666007208840070088000CD0A212BE32B27082E
:10067600433A031D5C2B2C08433A031D5C2BCD012A
:1006860004304D0203185B2B4D08523EF2004D0814
:10069600013EF000F1010318F10A7008273E8400BC
:1006A6000008F0007208840070088000CD0A432B11
:1006B600E32B2708483A031D7E2B2C08483A031DD6
:1006C6007E2BCD0104304D0203187D2B4D084E3E86
:1006D600F2004D08013EF000F1010318F10A70081E
:1006E600273E84000008F00072088400700880002D
:1006F600CD0A652BE32B2708413A031DA02B3A08A8
:10070600413A031DA02BCD0112304D0203189F2B39
:100716004D08A03EF2004D08013EF000F10103181D
:10072600F10A7008273E84000008F0007208840071
:1007360070088000CD0A872BE32B2708513A031D4A
:10074600C22B2C08513A031DC22BCD0104304D0299
:100756000318C12B4D08563EF2004D08013EF0002D
:10076600F1010318F10A7008273E84000008F00022
:100776007208840070088000CD0AA92BE32B270895
:100786004C3A031DE32B3A084C3A031DE32BCD01EB
:1007960012304D020318E32B4D085E3EF2004D0861
:1007A600013EF000F1010318F10A7008273E8400AB
:1007B6000008F0007208840070088000CD0ACB2B78
:1007C6005A08303A0319F02B5A08323A0319F02B1B
:1007D6005A08333A0319F02BD52C4A08F000F101D8
:1007E600F00DF10D70107008A03E8400303000024C
:1007F600031CD52C4A08F000F101F00DF10D701024
:100806007008A03E84000008393C031CD52C4A0819
:10081600F000F101F00DF10D7010F00A0319F10A64
:100826007008A03E840030300002031CD52C4A0814
:10083600F000F101F00DF10D7010F00A0319F10A44
:100846007008A03E84000008393C031CD52C4A08D9
:100856008316D500D601D50DD60D55105508A03EE8
:100866008400303000028312F000F101031CF10312
:100876000A30F4000030F5008D2083165508013E3D
:10088600D30000300318013E5607D4005308A03E9B
:10089600840000088312F0070318F10A3030700252
:1008A6008316D1000030031C013E831271028316A9
:1008B600D20051088312C600831652088312C7005D
:1008C600831655085E3E8400303000028312F00025
:1008D600F101031CF1030A30F4000030F5008D200D
:1008E600831653085E3E8400000883127007C80012
:1008F60071080318013EC9003030C802031CC90341
:10090600003083165206031D8A2C00305106031D43
:10091600972C83124A08B63E840080014A08BF3EDF
:100926008400FF308000D52C831280304706F0000B
:10093600803049067002031DA22C48084602031C9B
:10094600AE2C4A08B63E8400FF3080004A08BF3EFF
:1009560084008001D52C46088316D70083124708E9
:100966008316D800D901DA01831248088316DB0002
:10097600831249088316DC009630DD00DE011E3046
:10098600DF000030E000F2217008C4007108C500E5
:100996004A08B63E8400FF3080004A08BF3E840005
:1009A600440880003F3083168504E03087048312B4
:1009B6004A08B63E840000088316E100A5214A08CD
:1009C600BF3E840000088316E1004D215A08303AE4
:1009D600031DEE2C07105A08313A031DF32C071499
:1009E6005A08323A031D102D5208303C0318102DB8
:1009F6005208393C031C102D31305202F100F2012D
:100A0600031CF20300307206031D0B2D71084A0603
:100A1600031D0F2D0714102D0710C8308316D7009D
:100A260083124A088316D80024228316E101A521E1
:100A36008316E1014D2107103130FD00FD0B212DFC
:100A460000000000CA0A5A08333A031D352D520821
:100A5600303C0318352D5208393C031C352D3130F6
:100A66005202CA004A08083C03183A2DCA015A081D
:100A7600323A0319432D5A08333A0319432D672D89
:100A860030305602031C662D5608393C031C662D71
:100A96004B08003A031D512DCC01662D4B08013A37
:100AA600031D572DCC01662D4B08023A031D5F2D01
:100AB60030305602CC00662D4B08033A031D662DD6
:100AC60030305702CC007B2D4B084E3E8400303030
:100AD6000002031C7B2D4B084E3E84000008393C67
:100AE600031C7B2D4B084E3E840030300002CC00A8
:100AF6003F3083168504E030870483124C08B53EE8
:100B0600F00005300318013EF1007008C0007108BE
:100B1600C10056228A110A1286004B08013A031DAB
:100B2600952D86161830FD00FD0B972D0000000050
:100B36004B08B23EF0007008840000088316850555
:100B460083127008840000088505CB0A4B08033C15
:100B56000318AE2DCB010830FD00FD0BB02D86012C
:040B6600182BB42D67
:100B6A005F3444349D34D534C634D334DB3445340D
:060B7A00DF34D734003423
:02400E00323945
:00000001FF
